:100000000C94FA000C9400000C9400000C94000076
:100010000C9400000C9400000C9400000C94000060
:100020000C9400000C9400000C9400000C94000050
:100030000C9400000C9400000C9400000C94000040
:100040000C9400000C9400000C9400000C94000030
:100050000C9400000C9400000C9400000C94000020
:100060000C9400000C9400000C9400000C94000010
:100070000C9400000C9400000C9400000C94000000
:100080000C9400000C9400000C9400000C940000F0
:100090000C9400000C9400000C9400000C940000E0
:1000A0000C9400000C9400000C9400000C940000D0
:1000B0000C9400000C9400000C9400000C940000C0
:1000C0000C9400000C9400000C9400000C940000B0
:1000D0000C9400000C9400000C9400000C940000A0
:1000E0000C9400000C9400000C9400000C94000090
:1000F0000C9400000C9400000C9400000C94000080
:100100000C9400000C9400000C9400000C9400006F
:100110000C9400000C9400000C9400000C9400005F
:100120000C9400000C9400000C9400000C9400004F
:100130000C9400000C9400000C9400000C9400003F
:100140000C9400000C9400000C9400000C9400002F
:100150000C9400000C9400000C9400000C9400001F
:100160000C9400000C9400000C9400000C9400000F
:100170000C9400000C9400000C9400000C940000FF
:100180000C9400000C9400000C9400000C940000EF
:100190000C9400000C94000000000000000000001F
:1001A0000C9400000C9400000C9400000C940000CF
:1001B0000C9400000C9400000C9400000C940000BF
:1001C0000C9400000C9400000C9400000C940000AF
:1001D0000C9400000C9400000C9400000C9400009F
:1001E0000C9400000C9400000C9400000C9400008F
:0401F0000C9400006B
:1001F400BFEFBDBFBFE3BEBFB0E4B0935200B09148
:100204005000B860B0935000B0915100B3FD01C0EC
:10021400FBCFB8EDB4BFB3E0B0934000BFEFB093F1
:100224000106BFEFB0932106BFEFB0934106BFEFC5
:10023400B0936106BFEFB0938106BFEFB093A10600
:10024400BFEFB093E106BFEFB0930107BFEFB093E8
:100254002107BFEFB0930606BFEFB0932606BFEFAA
:10026400B0934606BFEFB0936606BFEFB093860621
:10027400BFEFB093A606BFEFB093E606BFEFB0930F
:100284000607BFEFB093260729E216E900E80A95AE
:10029400F1F71A95E1F72A95D1F7BFEFB093050668
:1002A400BFEFB0932506BFEFB0934506BFEFB09301
:1002B4006506BFEFB0938506BFEFB093A506BFEF09
:1002C400B093E506BFEFB0930507BFEFB0932507E2
:1002D40029E216E900E80A95F1F71A95E1F72A955B
:0602E400D1F7B7CFFFCFF8
:00000001FF
