:100000000C9408010C9400000C9400000C94000067
:100010000C9400000C9400000C9400000C94000060
:100020000C9400000C9400000C9400000C94000050
:100030000C9400000C9400000C94FA000C94000046
:100040000C9400000C9400000C9400000C94000030
:100050000C9400000C9400000C9400000C94000020
:100060000C9400000C9400000C9400000C94000010
:100070000C9400000C9400000C9400000C94000000
:100080000C9400000C9400000C9400000C940000F0
:100090000C9400000C9400000C9400000C940000E0
:1000A0000C9400000C9400000C9400000C940000D0
:1000B0000C9400000C9400000C9400000C940000C0
:1000C0000C9400000C9400000C9400000C940000B0
:1000D0000C9400000C9400000C9400000C940000A0
:1000E0000C9400000C9400000C9400000C94000090
:1000F0000C9400000C9400000C9400000C94000080
:100100000C9400000C9400000C9400000C9400006F
:100110000C9400000C9400000C9400000C9400005F
:100120000C9400000C9400000C9400000C9400004F
:100130000C9400000C9400000C9400000C9400003F
:100140000C9400000C9400000C9400000C9400002F
:100150000C9400000C9400000C9400000C9400001F
:100160000C9400000C9400000C9400000C9400000F
:100170000C9400000C9400000C9400000C940000FF
:100180000C9400000C9400000C9400000C940000EF
:100190000C9400000C94000000000000000000001F
:1001A0000C9400000C9400000C9400000C940000CF
:1001B0000C9400000C9400000C9400000C940000BF
:1001C0000C9400000C9400000C9400000C940000AF
:1001D0000C9400000C9400000C9400000C9400009F
:1001E0000C9400000C9400000C9400000C9400008F
:0401F0000C9400006B
:10021000BFEFBDBFBFE3BEBFBFEFB0936106BFEF8F
:10022000B09366062BE016E20EE50A95F1F71A95F3
:10023000E1F72A95D1F700000000B0E1B09326085D
:10024000B7E2B0932708B5E0B0930008B2E0B093EE
:100250000608B2E0B093A200BFB7B068BFBFFFCF3F
:02026000FFCFCE
:1001F400EF93FF93BF93BFB7BF93BFEFB09367066F
:0C020400BF91BFBFBF91FF91EF91189513
:00000001FF
