:100000000C9481010C9400000C9400000C940000EE
:100010000C9400000C9400000C9400000C94000060
:100020000C9400000C9400000C9400000C94000050
:100030000C9400000C9400000C9400000C94000040
:100040000C9400000C9400000C9400000C94000030
:100050000C9400000C9400000C9400000C94000020
:100060000C9400000C9400000C9400000C94000010
:100070000C9400000C9400000C9400000C94000000
:100080000C9400000C9400000C9400000C940000F0
:100090000C9400000C9400000C9400000C940000E0
:1000A0000C9400000C9400000C9400000C940000D0
:1000B0000C9400000C9400000C9400000C940000C0
:1000C0000C9400000C9400000C9400000C940000B0
:1000D0000C9400000C9400000C9400000C940000A0
:1000E0000C9400000C9400000C9400000C94000090
:1000F0000C9400000C9400000C9400000C94000080
:100100000C9400000C9400000C9400000C9400006F
:100110000C9400000C9400000C9400000C9400005F
:100120000C9400000C9400000C9400000C9400004F
:100130000C9400000C9400000C9400000C9400003F
:100140000C9400000C9400000C9400000C9400002F
:100150000C9400000C9400000C9400000C9400001F
:100160000C9400000C9400000C9400000C9400000F
:100170000C9400000C9400000C9400000C940000FF
:100180000C9400000C9400000C9400000C940000EF
:100190000C9400000C94000000000000000000001F
:1001A0000C9400000C9400000C9400000C940000CF
:1001B0000C9400000C9400000C9400000C940000BF
:1001C0000C9400000C9400000C9400000C940000AF
:1001D0000C9400000C9400000C9400000C9400009F
:1001E0000C9400000C9400000C9400000C9400008F
:0401F0000C9400006B
:10030200BFEFBDBFBFE3BEBF2F923F924F92B091EE
:10031200A408B460B093A408BCE0B093A608B0E00F
:10032200B093A70877DFB0E0B093082000910820CF
:100332000F3F78F40091082010E000501F4F4090CA
:10034200082018019ADF009108200F5F009308200F
:10035200EDCFB0E0B0930820009108200F3F88F461
:100362000091082010E000501F4F1801B0DF0093E9
:100372000920202E3EDF009108200F5F0093082005
:0A038200EBCF4F903F902F90FCCF7F
:10027C00B091CF01B7FF01C0FBCFB091CF01B1FF5F
:10028C000AC0B6E3B093CA01B8EDB4BFB091CB01CC
:10029C00B160B093CB01B3E3B093CA012092C0011B
:1002AC003092C101B0E0B093C2014092C401B5E3F9
:1002BC00B093CA01B8EDB4BFB091CB01B160B093AB
:0402CC00CB010895C5
:1002D000B091CF01B7FF01C0FBCF2092C001309297
:1002E000C101B0E0B093C201B6E0B093CA01B8ED6D
:1002F000B4BFB091CB01B160B093CB010091C40108
:0203000008955E
:1001F400B091A108B5FD01C0FBCFB091A108B6FF35
:1002040005C0B091A108B064B093A1082092A008E1
:0202140008954B
:10021600BAEFB0930220B0E0B0930320BFEFB093E3
:100226000420BFEFB0930520BFEFB0930020BFEFCF
:10023600B0930120BFEFB0930620BFEFB093072025
:10024600B0914206B460B0934206B0914106B860E0
:10025600B0934106B0E0B093A3080091A4080861EA
:0C0266000093A408B3E0B093A50808952D
:0A02720005900D920197E1F7089541
:00000001FF
