:100000000C9490010C9400000C9400000C940000DF
:100010000C9400000C9400000C9400000C94000060
:100020000C9400000C9400000C9400000C94000050
:100030000C9400000C9400000C9400000C94000040
:100040000C9400000C9400000C9400000C94000030
:100050000C9400000C9400000C9400000C94000020
:100060000C9400000C9400000C9400000C94000010
:100070000C9400000C9400000C9400000C94000000
:100080000C9400000C9400000C9400000C940000F0
:100090000C9400000C9400000C9400000C940000E0
:1000A0000C9400000C9400000C9400000C940000D0
:1000B0000C9400000C9400000C9400000C940000C0
:1000C0000C9400000C9400000C9400000C940000B0
:1000D0000C9400000C9400000C9400000C940000A0
:1000E0000C9400000C9400000C9400000C94000090
:1000F0000C9400000C9400000C9400000C94000080
:100100000C9400000C9400000C9400000C9400006F
:100110000C9400000C9400000C9400000C9400005F
:100120000C9400000C9400000C9400000C9400004F
:100130000C9400000C9400000C9400000C9400003F
:100140000C9400000C9400000C9400000C9400002F
:100150000C9400000C9400000C9400000C9400001F
:100160000C9400000C9400000C9400000C9400000F
:100170000C9400000C9400000C9400000C940000FF
:100180000C9400000C9400000C9400000C940000EF
:100190000C9400000C94000000000000000000001F
:1001A0000C9400000C9400000C9400000C940000CF
:1001B0000C9400000C9400000C9400000C940000BF
:1001C0000C9400000C9400000C9400000C940000AF
:1001D0000C9400000C9400000C9400000C9400009F
:1001E0000C9400000C9400000C9400000C9400008F
:0401F0000C9400006B
:10032000BFEFBDBFBFE3BEBF2F923F924F925F9220
:100330006F927F92B091A408B460B093A408BCE01F
:10034000B093A608B0E0B093A70893DFB0E0B093F5
:100350004820B0934920B0E0B0934A2000914A2051
:10036000003448F500914A2010E000501E4F18015B
:10037000C2DF00934B20202EC2DF00914A200F5F86
:1003800000934A2010E000501E4F1801B4DF009384
:100390004B20202EB4DF00914A200F5F00934A20AB
:1003A00022E014E00BEB0A95F1F71A95E1F72A9594
:1003B000D1F70000D3CF25E11BE40FEB0A95F1F74D
:1003C0001A95E1F72A95D1F70000B0E0B0934A20E2
:1003D00000914A20003458F500914A2010E0005066
:1003E0001E4F180188DF00934B2010914A201F5F99
:1003F00010934A20202E83DF00914A2010E0005005
:100400001E4F180178DF00934B2010914A201F5F88
:1004100010934A20202E73DF22E014E00BEB0A95A4
:10042000F1F71A95E1F72A95D1F70000D1CF25E130
:100430001BE40FEB0A95F1F71A95E1F72A95D1F72E
:100440000000B0E46B2EB0E07B2EB8E04B2EB0E2A3
:100450005B2EB0E02B2EB2E03B2E39DFB0E0B09344
:100460004A2000914A20003298F500914A20202F1E
:1004700030E0220F331F08E010E2F901E00FF11F16
:10048000008100934B20202E3ADF00914A20202F3C
:1004900030E0220F331F08E010E2F901E00FF11FF6
:1004A00001911191012F10E000934B20202E27DFA6
:1004B00022E014E00BEB0A95F1F71A95E1F72A9583
:1004C000D1F7000000914A200F5F00934A20C9CF66
:1004D00025E11BE40FEB0A95F1F71A95E1F72A9550
:1004E000D1F70000B0E26B2EB0E07B2EB8E04B2ECF
:1004F000B0E25B2EB0E02B2EB2E03B2EA1DEB0E0EE
:10050000B0934A2000914A20003298F500914A2089
:10051000202F30E0220F331F08E010E2F901E00F36
:10052000F11F008100934B20202EE9DE00914A202C
:10053000202F30E0220F331F08E010E2F901E00F16
:10054000F11F01911191012F10E000934B20202EFB
:10055000D6DE22E014E00BEB0A95F1F71A95E1F7ED
:100560002A95D1F7000000914A200F5F00934A209E
:10057000C9CF7F906F905F904F903F902F90F9CFB1
:000580007B
:0802F600F101C895002D0895E7
:1002FE00B091A108B5FD01C0FBCFB091A108B6FF2A
:10030E0005C0B091A108B064B093A1082092A008D6
:02031E00089540
:1002CE00C301B82FB92B79F00197F101C8958F01B1
:1002DE000F5F1F4FF8011801F201008282010F5FBC
:0802EE001F4F2801EECF089517
:10024000C301B82FB92BA1F00197F101C8953196E0
:10025000602DC8958F010F5F1F4FF801702D180199
:10026000F2016193719382010E5F1F4F2801E9CF64
:020270000895EF
:10027200BFE7B0930220B1E0B0930320BFEFB09389
:100282000020BFEFB0930120BFEFB0930620BFEF75
:10029200B0930720BFEFB0930420BFEFB0930520C7
:1002A200B0914206B460B0934206B0914106B86084
:1002B200B0934106B0E0B093A3080091A40808618E
:0C02C2000093A408B3E0B093A5080895D1
:0A01F40005900D920197E1F70895C0
:1002000000000100020003000400050006000700D2
:10021000080009000A000B000C000D000E000F0082
:1002200000000001000200030004000500060007B2
:1002300000080009000A000B000C000D000E000F62
:00000001FF
