:100000000C945F010C9400000C9400000C94000010
:100010000C9400000C9400000C9400000C94000060
:100020000C9400000C9400000C9400000C94000050
:100030000C9400000C9400000C9400000C94000040
:100040000C9400000C9400000C9400000C94000030
:100050000C9400000C9400000C9400000C94000020
:100060000C9400000C9400000C9400000C94000010
:100070000C9400000C9400000C9400000C94000000
:100080000C9400000C9400000C9400000C940000F0
:100090000C9400000C9400000C9400000C940000E0
:1000A0000C9400000C9400000C9400000C940000D0
:1000B0000C9400000C9400000C9400000C940000C0
:1000C0000C9400000C9400000C9400000C940000B0
:1000D0000C9400000C9400000C9400000C940000A0
:1000E0000C9400000C9400000C9400000C94000090
:1000F0000C9400000C9400000C9400000C94000080
:100100000C9400000C9400000C9400000C9400006F
:100110000C9400000C9400000C9400000C9400005F
:100120000C9400000C9400000C9400000C9400004F
:100130000C9400000C9400000C9400000C9400003F
:100140000C9400000C9400000C9400000C9400002F
:100150000C9400000C9400000C9400000C9400001F
:100160000C9400000C9400000C9400000C9400000F
:100170000C9400000C9400000C9400000C940000FF
:100180000C9400000C9400000C9400000C940000EF
:100190000C9400000C94000000000000000000001F
:1001A0000C9400000C9400000C9400000C940000CF
:1001B0000C9400000C9400000C9400000C940000BF
:1001C0000C9400000C9400000C9400000C940000AF
:1001D0000C9400000C9400000C9400000C9400009F
:1001E0000C9400000C9400000C9400000C9400008F
:0401F0000C9400006B
:1002BE00BFEFBDBFBFE3BEBFCDB7DEB72697CDBF85
:1002CE00DEBF21962F923F92B091A408B460B093F6
:1002DE00A408BCE0B093A608B0E0B093A7089ADFDC
:1002EE002BE016E20EE50A95F1F71A95E1F72A953D
:1002FE00D1F700000000B3E5B883B4E7B983B1E6E7
:10030E00BA83B2E7BB83B4E7BC83B0E0BD838E0192
:10031E001801B1DFC7DF002329F0AADF0093082000
:08032E00202E61DFF7CFFFCFA5
:1002840010E0F1010081202F022F003079F03F921D
:100294002F92202EADDF2F903F90012F0F5F102F54
:0E02A400E02FF0E0E20DF31D0081EFCF089592
:1001F400B091A108B5FD01C0FBCFB091A108B6FF35
:1002040005C0B091A108B064B093A1082092A008E1
:0202140008954B
:0C02B2000090A108002707FC03950895A8
:06027E000091A0080895A4
:0A02160005900D920197E1F708959D
:10022200BAEFB0930220B0E0B0930320BFE3B093E3
:100232000020B1E0B0930120B9E5B0930620B1E00F
:10024200B0930720BFEFB0930420BFEFB093052017
:10025200B0914206B460B0934206B0914106B860D4
:10026200B0934106B0E0B093A3080091A4080861DE
:0C0272000093A408B3E0B093A508089521
:0202200008953F
:00000001FF
